:020000040800F2
:1000000000500020A15200086D4C00086F4C000801
:10001000714C0008734C0008754C0008000000008B
:10002000000000000000000000000000774C000805
:10003000794C0008000000007B4C00087D4C000853
:10004000E9520008E9520008E9520008E9520008A4
:10005000E9520008E9520008E9520008E952000894
:10006000E9520008E9520008E9520008E952000884
:10007000E9520008E9520008E9520008E952000874
:10008000E9520008E9520008E9520008E952000864
:10009000854C0008E9520008E9520008E9520008BE
:1000A000E9520008E9520008E9520008E952000844
:1000B000E9520008954C0008E9520008A54C0008D8
:1000C000B54C0008E9520008E9520008E95200085E
:1000D000E9520008E9520008E9520008E952000814
:1000E000E9520008E9520008E95200080000000047
:1000F0000000000000000000000000000000000000
:0C01000000000000000000005FF808F1A3
:10010C0010B5054C237833B9044B13B10448AFF345
:10011C0000800123237010BDE001002000000000CE
:10012C00605B000808B5034B1BB103490348AFF3F0
:10013C00008008BD00000000E4010020605B0008A6
:10014C00034613F8012B002AFBD1181A013870470B
:10015C0010B504460E4B18784FF47A73B3FBF0F3DA
:10016C000C4A1068B0FBF3F000F08EF868B90F2C55
:10017C0001D901200AE0002221464FF0FF3000F0A7
:10018C0043F8054B1C60002000E0012010BD00BFAF
:10019C0000000020180100200400002008B5074AC8
:1001AC00136843F010031360032000F01BF80020C9
:1001BC00FFF7CEFF04F032FD002008BD0020024006
:1001CC00034A1168034B1B780B441360704700BF44
:1001DC002C04002000000020014B1868704700BF61
:1001EC002C040020074AD36823F4E0631B041B0C87
:1001FC00000200F4E060184340F0BF6040F40030AF
:10020C00D060704700ED00E030B4174BDB68C3F3EF
:10021C000223C3F10704042C28BF04241D1D062D42
:10022C0018D9033B4FF0FF3505FA04F421EA040119
:10023C00994005FA03F322EA0303194300280BDB68
:10024C000901C9B200F1604000F5614080F800136B
:10025C0030BC70470023E5E700F00F000901C9B27C
:10026C00024B1954F4E700BF00ED00E014ED00E080
:10027C0000F01F02400901239340024A42F820304B
:10028C00704700BF00E100E00138B0F1807F0AD276
:10029C00064B5860064AF02182F823100020986023
:1002AC0007221A6070470120704700BF10E000E081
:1002BC0000ED00E058B110B5044643791BB10123A1
:1002CC006371002010BD037104F0BCFAF7E7012044
:1002DC007047000008B590F82130022B03D004239E
:1002EC008363012008BD0268136823F00E031360BA
:1002FC000268136823F0010313600368194A9342E0
:10030C0014D0143293421FD0143293421ED01432A4
:10031C0093421ED0143293421ED01432934202D018
:10032C004FF0807203E04FF4801200E001220E4B7C
:10033C005A60012380F82130002380F82030436B71
:10034C006BB198470020CDE71022F0E74FF4807294
:10035C00EDE74FF48052EAE74FF48032E7E70020F4
:10036C00C0E700BF0800024000000240F0B482B0B9
:10037C0000263546A1E0002C59D0012C00D1CE68C6
:10038C00FF2B68D88446FF2B68D8AC00DCF8002023
:10039C000F27A74022EA070206FA04F42243CCF8FE
:1003AC0000204A6812F0805F00F086805E4A9469F3
:1003BC0044F001049461926902F001020192019AE5
:1003CC00AC08A71C594A52F8272005F00307BF00B8
:1003DC004FF00F0C0CFA07FC22EA0C0C544A90421A
:1003EC0042D002F5806290427FD002F5806290424A
:1003FC007DD002F58062904234D0042235E04D4F1E
:10040C00BC4214D00BD94C4FBC4210D007F58037EE
:10041C00BC420CD0A7F58017BC42B1D107E0A7F5C0
:10042C008017BC4203D007F58037BC42A8D18C683A
:10043C007CB1012C08D042610826A1E7CE680836B1
:10044C009EE7CE680C369BE70261082698E70026EB
:10045C0096E7042694E700F1040C94E7A5F1080450
:10046C00A40093E7032200E00022BA4042EA0C0207
:10047C0002342E4F47F824204A6812F4803F38D0BB
:10048C002E4C22681A4322604A6812F4003F36D080
:10049C002A4C62681A4362604A6812F4801F34D096
:1004AC00264CA2681A43A2604A6812F4001F32D08C
:1004BC00224CE2681343E36001350F2D31D8012241
:1004CC00AA400B6813409A42F6D14C68122CB8D053
:1004DC0095D8022CB2D07FF64EAF032CB7D0112C8E
:1004EC007FF44EAFCE6804364AE70122BDE7022204
:1004FC00BBE7124C226822EA03022260C4E70F4CCD
:10050C00626822EA03026260C6E70C4CA26822EA27
:10051C000302A260C8E7094CE26822EA0303E36025
:10052C00CAE702B0F0BC7047001002400000014066
:10053C0000080140000021100000311000040140AF
:10054C0012B909040161704701617047C3685940D1
:10055C00C160704790F83E30DBB2402B13D003697A
:10056C00B3F5804F1ED0036D002B2DD0036D012BE6
:10057C0033D1436CC3F3C813026803F0060343F092
:10058C00F103136129E0036D2BB9436C026803F08E
:10059C00FE03136121E0436C026843F00103DBB2FC
:1005AC0013611AE090F83D30DBB2212B06D0436C7E
:1005BC00026843F00103DBB213610EE0436C026886
:1005CC0003F0FE03136108E0436CC3F3C813026825
:1005DC0003F0060343F0F003136100207047436CF3
:1005EC000268DBB213610020704710B48DB090F834
:1005FC003E30DAB2C16A046B90F83D30DBB2222B8C
:10060C000BD000230B9303685A690B929B690B93D5
:10061C000B9B00200DB010BC7047036D0BB9402A2A
:10062C0017D0036D1BB90369B3F5404F19D0438D37
:10063C009BB2002B25D1039303685A6903929A69E4
:10064C000392039A1A6842F400721A60002303653D
:10065C00DFE7019303685A6901929B690193019B3F
:10066C00D7E70023029303685A6902929A690292AF
:10067C00029A1A6842F480721A60036D01330365A2
:10068C00C7E7438D9BB2012B1AD0438D9BB2022B33
:10069C006BD00268136843F48063136003685A6874
:1006AC0012F4006F03D05A6842F480525A6000234F
:1006BC000A9303685A690A929B690A930A9BC5E7D5
:1006CC0011F5803F16D004293DD008293BD0122CBF
:1006DC0039D0C36A022B30D00268136823F48063CC
:1006EC0013600023069303685A6906929B6906936C
:1006FC00069BABE70268136823F4806313600368FE
:10070C005A6812F4006F0CD01A6822F480621A60D6
:10071C000023049303685A6904929B690493049B15
:10072C0094E7002205925A6905929A690592059AF6
:10073C001A6842F400721A6088E70268136843F47E
:10074C0080631360CDE70268136823F48063136041
:10075C000023079303685A6907929A690792079ACC
:10076C001A6842F400721A6070E7C36A022B1BD03D
:10077C000268136843F40063136000230893036852
:10078C005A6908929A690892089A1A6822F4806247
:10079C001A6003685A6812F4006F3FF457AF5A6836
:1007AC0042F480525A6051E70268136843F4806344
:1007BC0013600023099303685A6909929B69099392
:1007CC00099BE6E7438D9BB24BB1436A5A1C4262CC
:1007DC0002681B781361438D013B9BB2438500205B
:1007EC007047438D9BB24BB103681A69436A591C1D
:1007FC0041621A70438D013B9BB2438500207047C8
:10080C0003685A6912F4806F0DD06FF480625A61DC
:10081C000423036400230363202280F83D2080F826
:10082C003C300120704700207047F8B506460C4656
:10083C0017461D461EE02DB1FFF7CEFC069BC01AD5
:10084C00A84217D900233363202286F83D2086F86E
:10085C003E3086F83C3003201AE033685B6924EAAA
:10086C0003039BB2B3FA83F35B099F420FD1B5F13B
:10087C00FF3FE0D1C4F30743012BEED033689B69F3
:10088C0024EA03039BB2B3FA83F35B09EDE7002080
:10089C00F8BDF8B504460D4616461F4632E01A68F8
:1008AC0042F400721A6023686FF480625A61042368
:1008BC00236400232363202284F83D2084F83C30F9
:1008CC0001202DE026B1FFF787FCC01BB04219D9DF
:1008DC0000232363202284F83D2084F83C3003203D
:1008EC001EE023685B6925EA03039BB2003318BF43
:1008FC000123A3B123685A6912F4806FCFD1B6F1EA
:10090C00FF3FDFD1C5F30743012BEAD023689B6976
:10091C0025EA03039BB2003318BF0123E9E700204B
:10092C00F8BD70B504460D46164623685B6913F096
:10093C00800F19D12046FFF763FFB8B9B5F1FF3F1F
:10094C00F3D025B1FFF748FC801BA842EDD9236CEE
:10095C0043F02003236400232363202284F83D20EA
:10096C0084F83C30032000E0002070BD0120FCE73F
:10097C002DE9F04184B004460E46174698460B9D6F
:10098C000268136843F48073136000950A9B00227D
:10099C004FF00111FFF749FF002847D1236806F0FB
:1009AC00FE061E612B460A9A26492046FFF771FF68
:1009BC0020B1236C042B3ED1012338E00023039398
:1009CC0023685A6903929B690393039B2A460A99ED
:1009DC002046FFF7A6FF034648B1236C042B2CD10D
:1009EC002268136843F40073136001231FE0B8F10D
:1009FC00010F13D023683A0A1A612A460A99204635
:100A0C00FFF78FFF034668B1236C042B17D12268C4
:100A1C00136843F400731360012308E02268FFB2EB
:100A2C00176104E02268FFB2176100E00323184647
:100A3C0004B0BDE8F0810323F9E70323F7E70323B0
:100A4C00F5E700BF020001002DE9F04184B0044637
:100A5C000E46174698460B9D0268136843F4806354
:100A6C0013600268136843F48073136000950A9B4B
:100A7C0000224FF00111FFF7D8FE002874D1F6B216
:100A8C00236806F0FE021A612B460A9A3F4920465B
:100A9C00FFF7FFFE20B1236C042B6AD1012364E025
:100AAC000023039323685A6903929B690393039B66
:100ABC002A460A992046FFF734FF48B1236C042BD1
:100ACC0059D12268136843F40073136001234CE07E
:100ADC00B8F1010F12D12368FFB21F612A460A999F
:100AEC002046FFF71EFF00B3236C042B47D122686E
:100AFC00136843F400731360012336E023683A0A49
:100B0C001A612A460A992046FFF70BFF48B1236C5D
:100B1C00042B32D12268136843F400731360012351
:100B2C0023E02368FFB21F61D8E72268136843F4FF
:100B3C008073136000950A9B00224FF00111204630
:100B4C00FFF773FEE8B9236846F001061E612B46D9
:100B5C000A9A0E492046FFF79CFE034628B1236CE7
:100B6C00042B10D1012300E00323184604B0BDE888
:100B7C00F0810323F9E70323F7E70323F5E70323C6
:100B8C00F3E70323F1E70323EFE700BF02000100C3
:100B9C0070B504460D46164623685B6913F0040FC6
:100BAC0019D12046FFF72CFEB8B9B5F1FF3FF3D0B1
:100BBC0025B1FFF711FB801BA842EDD9236C43F044
:100BCC002003236400232363202284F83D2084F82F
:100BDC003C30032000E0002070BD0120FCE770B524
:100BEC0005460C4616462B685A6912F0400F22D166
:100BFC005A6912F0100F11D124B1FFF7EDFA801BD6
:100C0C00A042F0D92B6C43F020032B64202385F8F1
:100C1C003D30002385F83C30032070BD6FF010028E
:100C2C005A6100232B642B63202285F83D2085F824
:100C3C003C300120F1E70020EFE70000002800F035
:100C4C00A28038B5044690F83D30002B4FD02423B9
:100C5C0084F83D302268136823F00103136001F01F
:100C6C00C7FF62684A4B9A4246D84A4B98428CBF9F
:100C7C0000230123002B40F08880474BA3FB00236B
:100C8C009B0C226853606168414A91423AD8013307
:100C9C002268136261683E4B99423DD8431E49005D
:100CAC00B3FBF1F30133C3F30B03042B38BF042361
:100CBC002268D361E369216A22680B4313602369BC
:100CCC00E16822680B4393606369A16922680B4356
:100CDC00D3602268136843F0010313600020206482
:100CEC00202384F83D30206384F83E0038BD80F822
:100CFC003C3003F047FEAAE7284B98428CBF0023F8
:100D0C000123B7E74FF4967202FB03F3244AA2FBCC
:100D1C0003239B090133BBE7A368BBB9421E01EB5C
:100D2C004105B2FBF5F20132C2F30B02B2FA82F2C8
:100D3C00520932BBC3B9013801EB4103B0FBF3F3E9
:100D4C000133C3F30B0343F40043B1E7421E01EB41
:100D5C00810505EB8505B2FBF5F20132C2F30B02FE
:100D6C00B2FA82F25209E4E7013801EB810303EB9A
:100D7C008303B0FBF3F30133C3F30B0343F440439E
:100D8C0096E7012394E7012070470120AEE700BFEE
:100D9C00A08601007F841E0083DE1B43FF083D00FC
:100DAC00D34D62102DE9F04182B004460E46174631
:100DBC009846FFF711FA94F83D30DBB2202B04D0A3
:100DCC000223184602B0BDE8F081054600901923B5
:100DDC00012251492046FFF728FD002840F093805E
:100DEC0094F83C30012B00F09080012384F83C30C7
:100DFC0023681A6812F0010F03D11A6842F001023D
:100E0C001A602268136823F400631360212384F8AA
:100E1C003D30402384F83E3000232364089B6362FA
:100E2C00BDF8243063853D4BE362638D23850195CA
:100E3C000A9B009343463A4631462046FFF798FDFD
:100E4C00B0B1236C042B04D1002384F83C30012373
:100E5C00B7E7002384F83C300323B2E7236C042B60
:100E6C0055D12268136843F4007313600123A8E77B
:100E7C00238D002B28D02A460A992046FFF751FDD6
:100E8C000028EBD1636A5A1C626222681B781361DA
:100E9C00238D013B9BB22385628D013A92B2628510
:100EAC002268516911F0040FE2D0002BE0D0636A84
:100EBC00591C61621B781361238D013B2385638D63
:100ECC00013B9BB26385D3E72A460A992046FFF77C
:100EDC005FFE034648B1236C042B1AD122681368B9
:100EEC0043F40073136001236BE721680A6842F432
:100EFC0000720A60202284F83D20002284F83E20F3
:100F0C0084F83C205DE702235BE7022359E70323C7
:100F1C0057E7032355E700BF020010000000FFFF56
:100F2C002DE9F04186B004460E4617469846FFF769
:100F3C0053F994F83D30DBB2202B04D00226304616
:100F4C0006B0BDE8F08105460090192301229149B5
:100F5C002046FFF76AFC002840F0578194F83C309B
:100F6C00012B00F05481012384F83C3023681A686B
:100F7C0012F0010F03D11A6842F001021A602268C4
:100F8C00136823F400631360222384F83D3040235C
:100F9C0084F83E30002323640C9B6362BDF834302C
:100FAC0063857D4BE362638D238501950E9B0093D6
:100FBC0043463A4631462046FFF746FD064660B1A9
:100FCC00236C042B04D1002384F83C300126B6E7B3
:100FDC00002384F83C300326B1E7238D5BB90293E0
:100FEC0023685A6902929A690292029A1A6842F428
:100FFC0000721A607FE0012B0FD0022B21D02268E7
:10100C00136843F4806313600023059323685A69C3
:10101C0005929B690593059B6DE02268136823F488
:10102C008063136072B60023039323685A6903929A
:10103C009A690392039A1A6842F400721A6062B6B3
:10104C0059E02268136843F40063136072B60023FE
:10105C00049323685A6904929A690492049A1A6850
:10106C0022F480621A6062B645E02A460E99204648
:10107C00FFF7B5FD68B923681A69636A591C616288
:10108C001A70238D013B2385638D013B9BB26385D5
:10109C0031E0236C202B01D0012650E703264EE7CC
:1010AC0000950E9B00223D492046FFF7BEFB002811
:1010BC0040F0AF8072B62268136843F4007313607B
:1010CC0023681A69636A591C61621A70238D013B8B
:1010DC002385638D013B9BB2638562B623681A69D5
:1010EC00636A591C61621A70238D013B2385638DE1
:1010FC00013B9BB26385238D002B7DD0032B4FD8F6
:10110C00012BB2D0022BCBD000950E9B0022234991
:10111C002046FFF78AFB00287DD12268136823F450
:10112C008063136072B623681A69636A591C616222
:10113C001A70238D013B2385638D013B9BB2638524
:10114C0000950E9B002215492046FFF76EFB0028E8
:10115C0063D12268136843F40073136023681A691F
:10116C00636A591C61621A70238D013B2385638D60
:10117C00013B9BB2638562B623681A69636A591C8A
:10118C0061621A70238D013B2385638D013B9BB2F9
:10119C006385B0E7020010000000FFFF04000100AF
:1011AC002A460E992046FFF71AFDF0B923681A69F2
:1011BC00636A591C61621A70238D013B2385638D10
:1011CC00013B9BB2638523685A6912F0040F92D0DD
:1011DC001A69636A591C61621A70238D013B23855D
:1011EC00638D013B9BB2638585E7236C202B01D07B
:1011FC000126A4E60326A2E6202384F83D30002332
:10120C0084F83E3084F83C3099E6022697E60226B4
:10121C0095E6032693E6032691E603268FE600BFA8
:10122C0070B483B0BDF81C600024019490F83D406C
:10123C00E4B2202C59D1314C2468E408304DA5FB84
:10124C000454240A04EB840404EB84040194019CEC
:10125C00651E0195002C3FD00468A56915F0020F9E
:10126C00F5D190F83C50012D43D0012580F83C502D
:10127C00256815F0010F03D1256845F0010525609F
:10128C0005682C6824F400642C60222480F83D400E
:10129C00402480F83E4000240464069D4562068587
:1012AC004685184DC56241648264C3640465026856
:1012BC00136843F4806313600268136843F480730B
:1012CC00136080F83C40038DABB10268536843F463
:1012DC00E0635360204609E000230363202280F87A
:1012EC003D2080F83C30032000E0022003B070BCAD
:1012FC0070470220FAE70020F8E700BF1801002031
:10130C0089B5F8140000FFFF70477047704708B5A7
:10131C0090F83D30DAB2438D9BB273B1436A591CDD
:10132C00416201681B780B61438D013B9BB2438585
:10133C00438D9BB20BB9292A01D0002008BD02684D
:10134C00536823F48063536021230363282380F8BC
:10135C003D30FFF7DBFFF0E7704790F83D30DAB235
:10136C00438D9BB2F3B110B503681969436A5C1CD9
:10137C0044621970438D013B9BB24385438D9BB2F4
:10138C000BB92A2A01D0002010BD0268536823F43F
:10139C008063536022230363282380F83D30FFF7DA
:1013AC00DBFFF0E700207047704708B503689A69C7
:1013BC0012F0040F09D000219B6913F0800F06D0A6
:1013CC00028BFFF7F1FF002008BD0121F4E78289B1
:1013DC00F7E7704708B590F83D30DBB2C26A042AD3
:1013EC0001D0082A01D1282B07D0212B1FD003684C
:1013FC006FF480625A61002008BD1A4BC362026808
:10140C00536823F4E063536003686FF480625A619D
:10141C000268136823F480631360002303632022A3
:10142C0080F83D2080F83E30FFF7D3FFE3E70D4B0B
:10143C00C36221230363202380F83D30002380F80E
:10144C003E300268536823F4E063536003686FF422
:10145C0080625A610268136823F480631360FFF79B
:10146C0055FFC8E70000FFFF704710B590F83D30FE
:10147C00DBB290F83E20D2B2C46A018D09B9212B9F
:10148C0005D0212B3CD0402A38D0002010BD042C94
:10149C0004D0082C02D014F5803F19D1026853688F
:1014AC0023F4E06353600268136843F40073136021
:1014BC0000230363202380F83D3090F83E30DBB2EC
:1014CC00402B15D0002380F83E30FFF71DFFDCE7E2
:1014DC000268536823F4E063536011230363002311
:1014EC0080F83E30202380F83D30FFF70DFFCCE72D
:1014FC00002380F83E30FFF7B7FFC6E7222BC4D19C
:10150C00438D9BB27BB190F83E30DBB2402B10D0B8
:10151C00436A5A1C426202681B781361438D013B7B
:10152C009BB24385B1E70268536823F48063536030
:10153C00ABE7036D9BB9C36C012B08D0836CC3F371
:10154C00072302681361036D013303659DE7836C08
:10155C000268DBB21361036D0233036595E7036D1B
:10156C00012B17D0036D022B8FD190F83D30DBB2DD
:10157C00222B17D090F83D30DBB2212B85D1436A5A
:10158C005A1C426202681B781361438D013B9BB26B
:10159C0043857AE7836C0268DBB21361036D013318
:1015AC00036572E70268136843F4807313606CE799
:1015BC0008B5C26A90F83D30DBB2212B01D0002077
:1015CC0008BD438D9BB203BB042A04D0082A02D069
:1015DC0012F5803F24D10268536823F4E063536012
:1015EC000268136843F40073136000230363202321
:1015FC0080F83D3090F83E30DBB2402B20D00023F9
:10160C0080F83E30FFF780FED9E7436A5A1C4262ED
:10161C0002681B781361438D013B9BB24385CEE777
:10162C000268536823F4E0635360112303630023BF
:10163C0080F83E30202380F83D30FFF765FEBEE792
:10164C00002380F83E30FFF70FFFB8E708B590F89D
:10165C003D30DBB2222B01D0002008BD438D9BB264
:10166C00032B29D8023B012B31D9C36A022B47D05B
:10167C000268136823F4806313600268536823F4D0
:10168C00E063536003681A69436A591C41621A701B
:10169C00438D013B9BB24385202380F83D300023D2
:1016AC00036390F83E30DBB2402B2FD0002380F840
:1016BC003E30FFF72AFECFE703681A69436A591CCC
:1016CC0041621A70438D013B9BB24385C4E7C36AE8
:1016DC00022B0FD00268136823F480631360026836
:1016EC00136843F4006313600268536823F4806347
:1016FC005360B1E70268136843F480631360F3E747
:10170C000268136843F480631360B6E7002380F823
:10171C003E3003F04BFA9FE708B5C26A438D9BB28B
:10172C00032B0FD0438D9BB2022B22D003681A6976
:10173C00436A591C41621A70438D013B9BB243852D
:10174C00002008BD042A04D0082A02D012F5803FDC
:10175C0004D10268136823F48063136003681A6968
:10176C00436A591C41621A70438D013B9BB24385FD
:10177C00E6E7042A17D0082A15D012F5803F12D0BC
:10178C00022A0AD00268136823F48063136002688B
:10179C00536823F4407353600FE00268136843F4FA
:1017AC0080631360F3E70268536823F4407353605B
:1017BC000268136843F40073136003681A69436A80
:1017CC00591C41621A70438D013B9BB243850368DF
:1017DC001A69436A591C41621A70438D013B9BB2D2
:1017EC004385202380F83D300023036390F83E307E
:1017FC00DBB2402B05D0002380F83E30FFF785FD8F
:10180C009EE7002380F83E3003F0D0F998E770474C
:10181C007047000010B5044690F83D30293B012B71
:10182C0036D990F83D30DBB2602B07D003685B688B
:10183C0013F4006F02D1202380F83D300023236382
:10184C0084F83E302268136823F400631360236825
:10185C005A6812F4006F3ED05A6822F400625A6043
:10186C00636B93F82120012A18D03A4A5A63606BB3
:10187C00FEF730FD00283FD02268136823F00103E7
:10188C001360202384F83D30606B436B984733E042
:10189C0000230363282380F83D30D3E7A36B2D4A44
:1018AC005A63A06BFEF716FD30B323685A6912F029
:1018BC00400F04D01A69636A591C61621A7022685D
:1018CC00136823F001031360202384F83D30A06BD0
:1018DC00436B984710E094F83D20D2B2602A11D0A7
:1018EC005A6912F0400F04D01A69636A591C61627C
:1018FC001A702046FFF78BFF94F83D30DBB2282B93
:10190C0017D010BD202284F83D20002222645A6991
:10191C0012F0400F04D01A69636A591C61621A7084
:10192C002268136823F0010313602046FFF770FF51
:10193C00E2E7236C13F0040FE3D0074BE3620023C0
:10194C002363202284F83D2084F83E302046FFF7A4
:10195C0040FDD6E7AD1C00080000FFFF10B582B0BB
:10196C0090F83D30DBB201684A6822F4E0624A60CC
:10197C0000220192026851690191116841F0010144
:10198C001160019A01680A6822F480620A60016899
:10199C004A6812F4006F14D090F83D20D2B2222A7B
:1019AC000AD090F83D20D2B22A2A05D0426B126898
:1019BC00526892B2428504E0826B1268526892B20D
:1019CC004285428D92B2F2B14A6912F0040F08D0EE
:1019DC000969426A541C44621170428D013A92B2F8
:1019EC0042850268516911F0400F08D01169426AB2
:1019FC00541C44621170428D013A92B24285026CC1
:101A0C0042F004020264026CA2B9282B15D02A2BD6
:101A1C0013D0292B11D0026B222A01D0222B17D1E3
:101A2C0000230363202280F83D2080F83E30FFF72E
:101A3C0093FC0DE0FFF7EEFE0AE0074BC3620023B8
:101A4C000363202280F83D2080F83E30FFF7C1FC74
:101A5C00002002B010BD00BF0000FFFFF8B5054626
:101A6C0003689F695C695E6890F83E30DBB2102BAE
:101A7C0025D0402B23D04C4B234013B116F4007FC0
:101A8C006ED14A4B234013B116F4007F6BD1484BF7
:101A9C003B40002B6FD0474B234033B116F4806F83
:101AAC0003D0454B2340002B61D0434B234053B311
:101ABC0016F4007F27D02846FEF784FE23E014F0AE
:101ACC00011F02D016F4007F1ED13C4B234013B1F2
:101ADC0016F4007F1CD1344B234013B116F4007F55
:101AEC001AD1334B3B401BB3324B23402BB116F472
:101AFC00806F02D0304B234093B12F4B234013B156
:101B0C0016F4007F10D1F8BD2846FEF723FDE8E758
:101B1C002846FEF764FDE4E72846FEF766FDE0E79D
:101B2C002846FFF7A2FCEEE72846FFF741FDEAE75F
:101B3C00234B23402BB116F4806F02D01E4B234055
:101B4C0053B11D4B2340002BDDD016F4007FDAD0AF
:101B5C002846FFF7E1FDD6E72846FFF777FDD2E7E9
:101B6C00FFF723FCCFE72846FFF7F8FECBE7284624
:101B7C00FFF7CDFBC7E7124B23402BB116F4806F58
:101B8C0002D00D4B234053B10B4B2340002BBAD04A
:101B9C0016F4007FB7D02846FEF723FEB3E728469D
:101BAC00FFF7DBFBAFE700BF0200010010000100F4
:101BBC000400100080000100040001000800010076
:101BCC004000010070B5044603685D695E68334AE5
:101BDC0015420ED016F4807F0BD0026C42F001023D
:101BEC0002646FF480725A610268136843F4004314
:101BFC00136015F4813F0AD016F4807F07D0236C54
:101C0C0043F00203236423686FF400725A6115F4E5
:101C1C00823F1AD016F4807F17D094F83E30DBB296
:101C2C00628D91B294F83D20D2B2206B202B1DD046
:101C3C00236C43F00403236494F83E30DBB2102B86
:101C4C0022D023686FF480625A6115F4843F0AD065
:101C5C0016F4807F07D0236C43F0080323642368B9
:101C6C006FF400625A61236CA3B970BD0029DFD1F7
:101C7C00212A05D0292A03D0282AD9D12128D7D125
:101C8C002046FFF7A7FBE0E72268136843F40073D4
:101C9C001360D6E72046FFF7BDFDE6E70001010023
:101CAC0008B5406A0268136823F48063136000234C
:101CBC004385426B5363826B536390F83D30DBB2C8
:101CCC00602B0DD0202380F83D30002380F83E306F
:101CDC000268136823F001031360FFF798FD08BD39
:101CEC00202380F83D30002380F83E3003640268E6
:101CFC00136823F001031360FFF78AFDEFE7002858
:101D0C0066D0F0B587B0044690F82934C3B10323EC
:101D1C0084F82934206801F0D2FB254655F8107B55
:101D2C006E460FCD0FC62B683360231D0ECB384685
:101D3C0001F0B6FB0021206801F0CBFB002315E07D
:101D4C0080F8283403F0E6F8E1E704EB43120121B4
:101D5C0082F8291082F828309386002182F82B1003
:101D6C009163D1639A1C5201A15001330E2BECD913
:101D7C00002312E004EB4312002182F8291282F8AE
:101D8C002832938682F82B12C2F83812C2F83C1211
:101D9C0003F112025201A15001330E2BEAD9254650
:101DAC0055F8107B6E460FCD0FC62B683360231D84
:101DBC000ECB384601F08FFB002584F8245001230C
:101DCC0084F82934206801F09AFE284607B0F0BD4B
:101DDC000120704790F82834012B10D010B5044620
:101DEC00012180F8281403F0A0F9206801F085FE89
:101DFC00206801F05CFB002084F8280410BD022050
:101E0C00704790F82834012B0DD010B504460123EF
:101E1C0080F8283480F82410006801F068FE002057
:101E2C0084F8280410BD0220704738B54DB2002D3F
:101E3C001CDB01F07F04640104F50A74044401F016
:101E4C007F012170ED0F65702261E37090F82834EA
:101E5C00012B11D00546012380F828342146006857
:101E6C0001F04FFB002085F8280438BD01F07F04F9
:101E7C00640128340444E2E70220F6E74AB2002A5F
:101E8C001BDB01F07F035B0103F50A73034401F0D4
:101E9C007F011970D20F5A7090F82824012A12D0A1
:101EAC0010B50446012280F828241946006801F078
:101EBC00BCFC002084F8280410BD01F07F035B01FA
:101ECC0028330344E3E70220704770B501F07F0527
:101EDC006C0104F50A7101440444C4F83C2205F178
:101EEC0012025201861883500023736084F8293241
:101EFC0084F8285225B1006801F01DFE002070BD49
:101F0C00006801F018FEF9E701F00F01123100EB47
:101F1C0041118888704770B501F07F056C0104F1A0
:101F2C00280101440444E263AA1C52018618835020
:101F3C0000237360012384F8293084F8285025B1DC
:101F4C00006801F0F8FD002070BD006801F0F3FDA1
:101F5C00F9E770B582B004460023ADF80630ADF851
:101F6C0004302068B0F844309BB2ADF8063013F45E
:101F7C00004F00F00D82BDF8065015F00F0540F033
:101F8C00C280BDF8063013F0100F50D003889BB2FE
:101F9C00ADF80430BDF8043013F4006F79D1BDF8FE
:101FAC00043013F4004FDCD0038823F070031B05BE
:101FBC001B0D03802068B0F8503094F8282203EBF6
:101FCC00C203063300EB4303D3F80034C3F3090315
:101FDC00C4F84432002B7CD10021204602F0C2FF11
:101FEC002368B3F85020063203EB4203D4F83812BE
:101FFC003E297CD9C1F34F1211F01F0F01D1013AC8
:10200C0092B26FEAC2626FEA524292B2C3F80024F3
:10201C00226813889BB223F4804323F0700383F46B
:10202C00405343F4004343F08003138099E7038843
:10203C009BB223F4E14323F070039BB2038022682C
:10204C00B2F8503094F8281003EBC103023302EBC2
:10205C004303D3F80034C3F309036364E26B134402
:10206C00E3630021204602F087FF94F82430002B14
:10207C003FF477AF236C002B7FF473AF94F82430CC
:10208C00226843F08003A2F84C30002384F82430FB
:10209C0067E7B0F8503094F8282203EBC2030633FC
:1020AC0000EB4303D3F80034C3F30903C4F8443200
:1020BC00B4F82C2204F22C4101F09AFE2268138809
:1020CC0023F070031B051B0D1380204602F042FF0A
:1020DC0047E7B4F82C22D4F83C1201F089FED4F86E
:1020EC004422D4F83C321344C4F83C3274E7C1F3B4
:1020FC004F0211F0010F01D0013292B2920292B252
:10210C00C3F8002484E730F825309BB2ADF80430D6
:10211C00BDF8043013F4004F35D1BDF8043013F082
:10212C00800F3FF41EAF226832F825309BB223F4A7
:10213C00E14323F070039BB222F8253004EB4513E6
:10214C0093F83230002B40F0B2802068B0F8503059
:10215C0004EB451292F8282003EBC203023300EB88
:10216C004303D3F80034C3F30903AA1C04EB421253
:10217C005360002B00F0C68004EB45118A8DC96BAF
:10218C0001F0C4FCBEE030F8253023F070031B05D1
:10219C001B0D20F8253004EB451393F83232D3B9DC
:1021AC002068B0F8503004EB451292F8282203EB6B
:1021BC00C203063300EB4303B3F80064C6F309060D
:1021CC0086B304EB45113346B1F82C22D1F83C12FE
:1021DC0001F00EFE26E0206804EB451393F828224C
:1021EC0030F8223013F4804F42D0B0F8503003EB6B
:1021FC00C203023300EB4303B3F80064C6F30906D1
:10220C0066BB226804EB451393F8281232F8213090
:10221C0023F0F0031B051B0D43F4004343F0C003F4
:10222C0022F8213005F112035B01E1184A683244AF
:10223C004A6004EB4511D1F83C223244C1F83C22EF
:10224C00E3581BB1D1F838128E4228D204EB451357
:10225C0093F82812204602F085FE5EE704EB451148
:10226C003346B1F82E22D1F83C1201F0C1FDC8E77B
:10227C00B0F8503003EBC203063300EB4303B3F862
:10228C000064C6F30906002EBBD004EB451133469F
:10229C00B1F83022D1F83C1201F0AAFDB1E704EB01
:1022AC00451191F828122046FFF70FFE35E72068FC
:1022BC0004EB451393F8282030F8223013F0400F2C
:1022CC0046D0B0F8503003EBC203023300EB4303AB
:1022DC00D3F80034C3F30903AA1C04EB4212536075
:1022EC007BBB226804EB451393F8281032F821309D
:1022FC0023F0F0031B051B0D43F4404343F0800314
:10230C0022F821302268B2F8503004EB451090F8D6
:10231C00281003EBC103023302EB4303D3F8002470
:10232C00C2F30902AB1C5B01E1184A60C16B0A44A1
:10233C00C263E35823BB90F82810204602F01CFE21
:10234C000FE604EB4511CA8DC96B01F0DFFBC8E742
:10235C00B0F8503003EBC203063300EB4303D3F861
:10236C000034C3F30903AA1C04EB42125360002B84
:10237C00B7D004EB45110A8EC96B01F0C7FBB0E76F
:10238C0004EB451595F828102046FFF7C4FDE8E549
:10239C00002002B070BD10B50446006801F0B1FB1E
:1023AC0010F4004F45D1206801F0ABFB10F4806FA6
:1023BC0043D1206801F0A5FB10F4804F08D02268AF
:1023CC00B2F844309BB223F480439BB2A2F8443061
:1023DC00206801F096FB10F4005F08D02268B2F878
:1023EC0044309BB223F400539BB2A2F844302068D3
:1023FC0001F087FB10F4805F30D1206801F081FB85
:10240C0010F4006F49D1206801F07BFB10F4007FC1
:10241C0064D1206801F075FB10F4807F08D022682D
:10242C00B2F844309BB223F480739BB2A2F84430D0
:10243C0010BD2046FFF78DFDB5E72268B2F8443099
:10244C009BB223F480639BB2A2F84430204602F086
:10245C00A2FD00212046FFF7D4FCAAE72268B2F8BF
:10246C0040309BB223F004039BB2A2F840302268A8
:10247C00B2F840309BB223F008039BB2A2F8403074
:10248C00204602F0A9FD2268B2F844309BB223F436
:10249C0080539BB2A2F84430AFE72268B2F84030C8
:1024AC0043F00803A2F840302268B2F844309BB2E3
:1024BC0023F400639BB2A2F844302268B2F8403097
:1024CC0043F00403A2F84030206801F01AFB10F42A
:1024DC00805F98D1204602F06FFD94E72268B2F835
:1024EC0044309BB223F400739BB2A2F844302046D4
:1024FC0002F04BFD8DE738B54AB2002A1BDB4B01CD
:10250C0003F50A73034401249C7001F07F051D70D0
:10251C00D20F5A7090F82824A24218D004460122F7
:10252C0080F828241946006801F061FA4DB10020AA
:10253C0084F8280438BD01F07F035B012833034481
:10254C00E1E704F22C41206801F0DEFAEFE702200B
:10255C00F0E710B54AB2002A1ADB4B0103F50A73F7
:10256C00034400249C7001F07F011970D20F5A7043
:10257C0090F82824012A11D00446012280F828243E
:10258C001946006801F06AFA002084F8280410BD8E
:10259C0001F07F035B0128330344E2E70220F6E7F6
:1025AC0011F0800F0CD001F07F014901283101445A
:1025BC005AB101228A72CB801B0C0B810020704710
:1025CC00490101F50A710144F2E78A728B80F5E743
:1025DC0082B0084B1B68084AA2FB03235B0A00FB72
:1025EC0003F0019000BF019B5A1E0192002BF9D100
:1025FC0002B0704718010020D34D621070B582B044
:10260C000446036813F0010F2CD0AB4B5B6803F04E
:10261C000C03042B1DD0A84B5B6803F00C03082B98
:10262C0012D06368B3F5803F41D0002B55D103F134
:10263C00804303F504331A6822F480321A601A6856
:10264C0022F480221A6037E09B4B5B6813F4803FC6
:10265C00E7D0994B1B6813F4003F03D06368002B41
:10266C0000F0AE81236813F0020F76D0924B5B68BA
:10267C0013F00C0F5FD0904B5B6803F00C03082B2E
:10268C0054D02369002B00F08A808C4B01221A60F5
:10269C00FDF7A2FD0546884B1B6813F0020F75D1A0
:1026AC00FDF79AFD401B0228F5D903208BE1824AE5
:1026BC00136843F480331360636843B3FDF78CFDF8
:1026CC0005467D4B1B6813F4003FCBD1FDF784FD11
:1026DC00401B6428F5D9032075E1B3F5A02F09D070
:1026EC00754B1A6822F480321A601A6822F4802220
:1026FC001A60E1E703F18043A3F53C331A6842F416
:10270C0080221A601A6842F480321A60D4E7FDF70E
:10271C0063FD0546684B1B6813F4003FA2D0FDF720
:10272C005BFD401B6428F5D903204CE1624B5B68D0
:10273C0013F4803FA5D1604B1B6813F0020F04D03B
:10274C002369012B01D001203DE15B4A136823F082
:10275C00F803616943EAC1031360236813F0080F9F
:10276C0032D0A369002B5BD0554B01221A60FDF7C8
:10277C0033FD0546504B5B6A13F0020F21D1FDF778
:10278C002BFD401B0228F5D903201CE14A4A136893
:10279C0023F0F803616943EAC1031360DDE7474B9B
:1027AC0000221A60FDF718FD0546434B1B6813F019
:1027BC00020FD2D0FDF710FD401B0228F5D90320E3
:1027CC0001E10120FFF704FF236813F0040F00F070
:1027DC009780394BDB6913F0805F33D1364BDA6964
:1027EC0042F08052DA61DB6903F080530193019B64
:1027FC000125344B1B6813F4807F25D0E368012B33
:10280C0036D0002B4CD103F1804303F504331A6A04
:10281C0022F001021A621A6A22F004021A622CE0F7
:10282C00274B00221A60FDF7D7FC0546224B5B6A4A
:10283C0013F0020FC8D0FDF7CFFC401B0228F5D9CE
:10284C000320C0E00025D4E71E4A136843F48073CC
:10285C001360FDF7C1FC06461A4B1B6813F4807F0E
:10286C00CCD1FDF7B9FC801B6428F5D90320AAE074
:10287C00114A136A43F001031362E36873B3FDF763
:10288C00ABFC06460C4B1B6A13F0020F37D1FDF75D
:10289C00A3FC801B41F288339842F3D9032092E0C9
:1028AC00052B11D0044B1A6A22F001021A621A6A23
:1028BC0022F004021A62E0E70010024000004242DB
:1028CC008004424200700040414B1A6A42F00402FC
:1028DC001A621A6A42F001021A62CEE7FDF77CFC1A
:1028EC0006463B4B1B6A13F0020F08D0FDF774FC35
:1028FC00801B41F288339842F3D9032063E0E5B999
:10290C00E369002B5ED0324A526802F00C02082AAE
:10291C005BD0022B17D02F4B00221A60FDF75CFC0A
:10292C0004462B4B1B6813F0007F47D0FDF754FC7B
:10293C00001B0228F5D9032045E0254AD36923F072
:10294C008053D361DCE7234B00221A60FDF744FC73
:10295C0005461F4B1B6813F0007F06D0FDF73CFCAF
:10296C00401B0228F5D903202DE0236AB3F5803FE4
:10297C001AD017494B6823F47413226A606A024315
:10298C0013434B60134B01221A60FDF725FC0446E0
:10299C000F4B1B6813F0007F0ED1FDF71DFC001BC5
:1029AC000228F5D903200EE0094A536823F40033BA
:1029BC00A1680B435360DCE7002004E0002002E038
:1029CC00012000E0002002B070BD0120FBE700BF39
:1029DC00001002406000424210B487B0164C94E8DC
:1029EC000F000DF1180C0CE90F00238AADF8043020
:1029FC00124B5B6803F00C02082A1AD1C3F3834212
:102A0C00624412F8102C13F4803F05D10C4800FBE3
:102A1C0002F007B010BC7047084B5B68C3F340432F
:102A2C00634413F8143C074800FB02F0B0FBF3F0CE
:102A3C00EFE70448EDE700BF785B000800100240A8
:102A4C0000093D0000127A00624B1B6803F007037B
:102A5C008B420CD25F4A136823F007030B431360BD
:102A6C00136803F007038B4201D00120704770B547
:102A7C00036813F0020F17D013F0040F04D0564A5A
:102A8C00536843F4E0635360036813F0080F04D0F9
:102A9C00514A536843F4605353604F4A536823F0D0
:102AAC00F0038468234353600D460446036813F017
:102ABC00010F52D04368012B23D0022B28D0464A59
:102ACC00126812F0020F00F0828043494A6822F02B
:102ADC00030213434B60FDF77FFB06466368012B33
:102AEC001DD0022B2AD03C4B5B6813F00C0F34D05A
:102AFC00FDF772FB801B41F288339842F3D9032017
:102B0C0064E0354A126812F4003FDED101205DE02A
:102B1C00314A126812F0007FD7D1012056E02E4BBB
:102B2C005B6803F00C03042B17D0FDF755FB801BDF
:102B3C0041F288339842F2D9032047E0264B5B6878
:102B4C0003F00C03082B08D0FDF746FB801B41F269
:102B5C0088339842F2D9032038E01E4B1B6803F0EF
:102B6C000703AB420CD91B4A136823F007032B4312
:102B7C001360136803F00703AB4201D0012025E07A
:102B8C00236813F0040F06D0134A536823F4E06350
:102B9C00E1680B435360236813F0080F07D00E4A0B
:102BAC00536823F46053216943EAC1035360FFF770
:102BBC0013FF094B5B68C3F30313084AD35CD8407B
:102BCC00074B18600020FDF7C3FA002070BD0120F0
:102BDC00FCE700BF0020024000100240AC5B000884
:102BEC0018010020014B1868704700BF1801002025
:102BFC0008B5FFF7F7FF044B5B68C3F30223034AE6
:102C0C00D35CD84008BD00BF00100240BC5B00087C
:102C1C0008B5FFF7E7FF044B5B68C3F3C223034A15
:102C2C00D35CD84008BD00BF00100240BC5B00085C
:102C3C0070B582B00446036813F0010F34D03E4BDC
:102C4C00DB6913F0805F48D13B4BDA6942F080526C
:102C5C00DA61DB6903F080530193019B0125374B4B
:102C6C001B6813F4807F3AD0334B1B6A13F4407308
:102C7C0011D0626802F440729A420CD02E4A136A48
:102C8C0023F440702E4901260E6000260E6010625F
:102C9C0013F0010F37D1284A136A23F4407361688B
:102CAC000B431362002D3FD1236813F0020F06D0A3
:102CBC00214A536823F44043A1680B4353602368B3
:102CCC0013F0100F35D01C4A536823F48003E168CD
:102CDC000B435360002002B070BD0025BFE7174ABC
:102CEC00136843F480731360FDF776FA0646134BB2
:102CFC001B6813F4807FB7D1FDF76EFA801B642834
:102D0C00F5D90320E7E7FDF767FA06460A4B1B6A7D
:102D1C0013F0020FBFD1FDF75FFA801B41F288332D
:102D2C009842F3D90320D6E7D36923F08053D361BB
:102D3C00BAE70020CFE700BF00100240007000404F
:102D4C004004424210B4036A046A24F00104046291
:102D5C00846924F0F00444EA021223F00A030B43C2
:102D6C008261036210BC704710B4036A23F0100335
:102D7C0003628469036A24F4704444EA023223F047
:102D8C00A00343EA01138261036210BC704783689D
:102D9C0023F0700341F0070119438160704710B4B0
:102DAC00846824F47F4442EA03230B432343836067
:102DBC0010BC70470268D36843F00103D36002680B
:102DCC00136843F0010313600020704790F83C3007
:102DDC00012B7DD010B50446012380F83C30022332
:102DEC0080F83D300268936823F47F4323F0770327
:102DFC0093600B68402B57D010D9702B3ED01FD846
:102E0C00502B47D0602B32D1CA6849680068FFF755
:102E1C00ABFF60212068FFF7BAFF28E0102B4DD0E4
:102E2C0008D9202B4FD0302B21D130210068FFF74F
:102E3C00AEFF1CE0DBB900210068FFF7A8FF16E02D
:102E4C00B3F5805F0ED0B3F5005F10D1CB684A6844
:102E5C0089680068FFF7A3FF2268936843F48043F6
:102E6C00936004E00268936823F0070393600123E6
:102E7C0084F83D30002084F83C0010BDCB684A68D3
:102E8C0089680068FFF78BFF2268936843F077032B
:102E9C009360ECE7CA6849680068FFF753FF50215C
:102EAC002068FFF774FFE2E7CA6849680068FFF71B
:102EBC0049FF40212068FFF76AFFD8E7102100681E
:102ECC00FFF765FFD3E720210068FFF760FFCEE72F
:102EDC0002207047704770477047704710B5044622
:102EEC0003681A6912F0020F11D0DA6812F0020F9F
:102EFC000DD06FF002021A610123037703689B69FE
:102F0C0013F0030F70D0FFF7E6FF0023237723683D
:102F1C001A6912F0040F12D0DA6812F0040F0ED0F6
:102F2C006FF004021A610223237723689B6913F460
:102F3C00407F5FD02046FFF7CEFF00232377236826
:102F4C001A6912F0080F12D0DA6812F0080F0ED0BE
:102F5C006FF008021A61042323772368DB6913F0EE
:102F6C00030F4ED02046FFF7B6FF002323772368CC
:102F7C001A6912F0100F12D0DA6812F0100F0ED07E
:102F8C006FF010021A61082323772368DB6913F4AE
:102F9C00407F3DD02046FFF79EFF00232377236818
:102FAC001A6912F0010F03D0DA6812F0010F36D152
:102FBC0023681A6912F0800F03D0DA6812F0800FC0
:102FCC0034D123681A6912F0400F03D0DA6812F07A
:102FDC00400F32D123681A6912F0200F03D0DA683F
:102FEC0012F0200F30D110BDFFF774FF2046FFF711
:102FFC0073FF8AE72046FFF76DFF2046FFF76CFF53
:10300C009BE72046FFF766FF2046FFF765FFACE71E
:10301C002046FFF75FFF2046FFF75EFFBDE76FF02E
:10302C0001021A61204601F0ADFDC1E76FF080028C
:10303C001A61204600F08DF8C3E76FF040021A6168
:10304C002046FFF74AFFC5E76FF020021A612046C1
:10305C0000F07EF8C7E7000003681B4A90420AD0D4
:10306C00B0F1804F07D0A2F59432904203D002F514
:10307C008062904203D123F070034A681343124AD2
:10308C0090420AD0B0F1804F07D0A2F59432904212
:10309C0003D002F58062904203D123F44073CA68D6
:1030AC00134323F080034A69134303608B68C362A4
:1030BC000B688362044B984202D001234361704732
:1030CC000B690363F9E700BF002C0140A8B110B5F0
:1030DC00044690F83D305BB1022384F83D30211D4D
:1030EC002068FFF7B9FF012384F83D30002010BDA4
:1030FC0080F83C3001F03EFEEEE70120704790F87E
:10310C003C30012B22D030B4012280F83C20022329
:10311C0080F83D300468636823F0700363600468D2
:10312C0063680D682B4363600468A36823F0800315
:10313C00A3600468A36849680B43A36080F83D2032
:10314C00002380F83C30184630BC70470220704792
:10315C00704770472DE9F84305460268136923F45C
:10316C004053C1680B43136183680269134342697E
:10317C0013430168CA6822F4B05222F00C021343C4
:10318C00CB600268536923F4407381690B4353612C
:10319C000268594B9A4257D0FFF72AFD00EB80008A
:1031AC0000EB80006C68A400B0FBF4F4534FA7FB59
:1031BC00043464092601FFF71BFD00EB800000EBD3
:1031CC0080006C68A400B0FBF4F9FFF711FD00EB74
:1031DC00800000EB80006C68A400B0FBF4F4A7FB4B
:1031EC00043464094FF0640808FB1494240132344D
:1031FC00A7FB0434640904F0F0043444FFF7F8FC32
:10320C0000EB800000EB80006E68B600B0FBF6F6B9
:10321C00FFF7EEFC00EB800000EB80006B689B007E
:10322C00B0FBF3F0A7FB0030400908FB10684FEA35
:10323C00081808F13208A7FB0837C7F343172B68A7
:10324C0027449F60BDE8F883FFF7E2FC00EB8000A9
:10325C0000EB80006C68A400B0FBF4F4274FA7FBD4
:10326C00043464092601FFF7D3FC00EB800000EB6B
:10327C0080006C68A400B0FBF4F9FFF7C9FC00EB0C
:10328C00800000EB80006C68A400B0FBF4F4A7FB9A
:10329C00043464094FF0640808FB1494240132349C
:1032AC00A7FB0434640904F0F0043444FFF7B0FCC9
:1032BC0000EB800000EB80006E68B600B0FBF6F609
:1032CC00FFF7A6FC00EB800000EB80006B689B0016
:1032DC00B0FBF3F0A7FB0030400908FB10684FEA85
:1032EC00081808F13208A7FB0837C7F343172B68F7
:1032FC0027449F60A6E700BF003801401F85EB51B3
:10330C002DE9F04105460F4616469846069C2B685B
:10331C001B6837EA03030CBF01230023B3421DD102
:10332C00B4F1FF3FF3D02CB1FCF756FFA0EB080033
:10333C00A042ECD92A68D36823F4D073D3602A68EE
:10334C00536923F001035361202385F8393085F844
:10335C003A30002385F83830032000E00020BDE827
:10336C00F08158B310B5044690F839300BB32423D0
:10337C0084F839302268D36823F40053D360204694
:10338C00FFF7E8FE2268136923F490431361226867
:10339C00536923F02A0353612268D36843F4005322
:1033AC00D3600020E063202384F8393084F83A306D
:1033BC0010BD80F8383001F017FDD8E701207047B8
:1033CC002DE9F04182B01E4690F83930DBB2202B4B
:1033DC0055D104460D469046002955D0002A55D0AB
:1033EC0090F83830012B53D0012380F8383000236B
:1033FC00C363212380F83930FCF7EEFE0746A4F8AE
:10340C002480A4F8268010E000963B460022802100
:10341C002046FFF775FF00283CD12B882268C3F3A8
:10342C00080353602369C3B90235E38C9BB2B3B173
:10343C00E38C013B9BB2E384A368B3F5805FE3D0DC
:10344C0000963B46002280212046FFF759FF18BB0F
:10345C002A7823685A600135E7E70135E5E70096DD
:10346C003B46002240212046FFF74AFF0346A8B9FD
:10347C00202284F83920002284F8382000E002232E
:10348C00184602B0BDE8F0810123F9E70123F7E704
:10349C000223F5E70323F3E70323F1E70323EFE725
:1034AC0084B001A880E80E00002004B07047B0F88A
:1034BC00403043F43F43A0F8403000207047B0F850
:1034CC00403023F474535B045B0CA0F840300020B4
:1034DC0070470020704784B038B505AC84E80E0006
:1034EC000123A0F840300024A0F84040A0F844404C
:1034FC00A0F85040FFF7DBFF2046BDE8384004B091
:10350C00704710B4CB78032B0FD8DFE803F0026DB3
:10351C0054600A7830F822309BB223F4EC4323F049
:10352C00700343F4007320F822300A7830F822300C
:10353C0023F0F0031B051B0D134343F4004343F02E
:10354C00800320F822308B7A002B40F0AF804B7830
:10355C00002B56D08A885208B0F850300C7803EB08
:10356C00C40300EB43035200C3F800240A7830F87C
:10357C00223013F0400F0BD030F8223023F0F00340
:10358C001B051B0D43F4004343F0C00320F822300D
:10359C000A7830F822309BB223F4E04323F0400346
:1035AC0083F0200343F4004343F0800320F82230DF
:1035BC00002010BC70470A7830F822309BB223F4FC
:1035CC00EC4323F070039BB220F82230ADE70A786D
:1035DC0030F822309BB223F4EC4323F0700343F415
:1035EC00C06320F82230A0E70A7830F822309BB272
:1035FC0023F4EC4323F0700343F4806320F822306F
:10360C0093E78A885208B0F850300C7803EBC40367
:10361C00043300EB43035200C3F80024B0F85030DD
:10362C000A7803EBC203063300EB43030C693E2C10
:10363C0030D9C4F34F1214F01F0F01D1013A92B2DA
:10364C006FEAC2626FEA524292B2C3F800240A785F
:10365C0030F8223013F4804F0BD030F8223023F0A6
:10366C00F0031B051B0D43F4404343F0800320F88B
:10367C0022300A7830F822309BB223F4804323F0B6
:10368C00700383F4405343F4004343F0800320F869
:10369C0022308DE7C4F34F0214F0010F01D0013238
:1036AC0092B2920292B2C3F80024D0E70A7830F8B2
:1036BC00223023F4F8731B051B0D43F4014343F034
:1036CC00800320F82230CA885208B0F850300C78A9
:1036DC0003EBC40300EB43035200C3F800240A8934
:1036EC005208B0F850300C7803EBC403043300EBF1
:1036FC0043035200C3F800244B78002B4BD10A78BB
:10370C0030F8223013F4804F0BD030F8223023F0F5
:10371C00F0031B051B0D43F4404343F0800320F8DA
:10372C0022300A7830F8223013F0400F0BD030F8EA
:10373C00223023F0F0031B051B0D43F4004343F030
:10374C00C00320F822300A7830F8223023F0F0033E
:10375C001B051B0D43F4004343F0C00320F822303B
:10376C000A7830F822309BB223F4804323F07003A4
:10377C0083F4405348F28004234320F822300A7823
:10378C0030F822309BB223F4E04323F04003234370
:10379C0020F822300CE70A7830F8223013F4804FEE
:1037AC000BD030F8223023F0F0031B051B0D43F433
:1037BC00404343F0800320F822300A7830F822305E
:1037CC0013F0400F0BD030F8223023F0F0031B0520
:1037DC001B0D43F4004343F0C00320F822300A7859
:1037EC0030F8223023F0F0031B051B0D43F440434B
:1037FC0043F0800320F822300B7830F8232092B26B
:10380C0022F4E04222F0400248F28004224320F8E5
:10381C0023200A7830F822309BB223F4804323F023
:10382C007003234320F82230C2E68B7A002B44D15C
:10383C004B780BB30A7830F8223013F0400F0BD0D2
:10384C0030F8223023F0F0031B051B0D43F400432A
:10385C0043F0C00320F822300A7830F822309BB2B3
:10386C0023F4E04323F0400343F4004343F080038C
:10387C0020F82230002070470A7830F8223013F4F8
:10388C00804F0BD030F8223023F0F0031B051B0DBA
:10389C0043F4404343F0800320F822300A7830F898
:1038AC0022309BB223F4804323F0700343F4004393
:1038BC0043F0800320F82230DCE710B44B78002B67
:1038CC004BD10A7830F8223013F4804F0BD030F8FB
:1038DC00223023F0F0031B051B0D43F4404343F04F
:1038EC00800320F822300A7830F8223013F0400F91
:1038FC000BD030F8223023F0F0031B051B0D43F4E2
:10390C00004343F0C00320F822300A7830F822300C
:10391C0023F0F0031B051B0D43F4004343F0C003DD
:10392C0020F822300B7830F8232092B222F4804217
:10393C0022F0700248F28004224320F823200A78F7
:10394C0030F822309BB223F4E04323F040032343AE
:10395C0020F82230002010BC70470A7830F8223052
:10396C0013F4804F0BD030F8223023F0F0031B05FA
:10397C001B0D43F4404343F0800320F822300A78B7
:10398C0030F8223013F0400F0BD030F8223023F0F7
:10399C00F0031B051B0D43F4004343F0C00320F858
:1039AC0022300A7830F8223023F0F0031B051B0D6F
:1039BC0043F4404343F0800320F822300B7830F876
:1039CC00232092B222F4E04222F0400248F280041A
:1039DC00224320F823200A7830F822309BB223F4BB
:1039EC00804323F07003234320F82230B2E70A7897
:1039FC008AB14B7813BB30F822309BB223F480434E
:103A0C0023F0700383F4805343F4004343F08003AA
:103A1C0020F8223010E030F822309BB223F480439F
:103A2C0023F0400383F4805383F0100343F40043EA
:103A3C0043F0800320F822300020704730F8223009
:103A4C009BB223F4E04323F0400383F0100343F4D0
:103A5C00004343F0800320F82230EDE74B781BB392
:103A6C000A7830F8223013F0400F0BD030F82230A7
:103A7C0023F0F0031B051B0D43F4004343F0C0037C
:103A8C0020F822300A7830F822309BB223F4E0433D
:103A9C0023F0400383F0300343F4004343F08003EE
:103AAC0020F82230002070470A7830F8223013F4C6
:103ABC00804F0BD030F8223023F0F0031B051B0D88
:103ACC0043F4404343F0800320F822300A7830F866
:103ADC0022309BB223F4804323F0700383F44053D1
:103AEC0043F4004343F0800320F82230DAE711B9A5
:103AFC008023A0F84C300020704700207047002035
:103B0C007047B0F8440070470020704701335B10D9
:103B1C0000EB420202F5806263B110B40C78487875
:103B2C0044EA002422F8044B0231013B002BF5D16E
:103B3C0010BC70477047F8B58A694D78012D34D0A8
:103B4C000B69934280F0EA80D21A8A618A7A002A41
:103B5C0040F0F480B0F850200C7802EBC40206322E
:103B6C0000EB42023E2B40F2DD80C3F34F1413F006
:103B7C001F0F01D1013CA4B26FEAC4646FEA544434
:103B8C00A4B2C2F800440A7830F822309BB223F475
:103B9C00804323F0700383F4405343F4004343F019
:103BAC00800320F822300020F8BD0F69974225D2FF
:103BBC00D21B8A610E4604468B7A1BB30B7830F805
:103BCC00232012F0400F69D0002D37D1B0F85020CF
:103BDC0002EBC303063300EB43033E2F22D9C7F39A
:103BEC004F1217F01F0F01D1013A92B26FEAC26265
:103BFC006FEA524292B2C3F8002428E000238B6192
:103C0C001746D7E7BBB28A884969FFF77FFFB4F83C
:103C1C005030327803EBC203023304EB4303C3F896
:103C2C0000742AE0C7F34F0217F0010F01D00132E4
:103C3C0092B2920292B2C3F8002408E0B0F850207D
:103C4C0002EBC303023300EB4303C3F80074328965
:103C5C00BBB271692046FFF759FF7378002B4DD129
:103C6C00327834F8223023F0F0031B051B0D43F49B
:103C7C00004343F0C00324F82230327834F8223069
:103C8C009BB223F4E04323F0400383F0300343F46E
:103C9C00004343F0800324F8223084E71DBBB0F8C6
:103CAC00502002EBC303023300EB43033E2F0ED92B
:103CBC00C7F34F1217F01F0F01D1013A92B26FEAFE
:103CCC00C2626FEA524292B2C3F8002414E0C7F306
:103CDC004F0217F0010F01D0013292B2920292B250
:103CEC00C3F8002408E0B0F8502002EBC303023301
:103CFC0000EB4303C3F80074F288A9E7012BBCD195
:103D0C00327834F8223023F0F0031B051B0D43F4FA
:103D1C00404343F0800324F82230AEE700238B614C
:103D2C00134613E7C3F34F0413F0010F01D0013412
:103D3C00A4B2A402A4B2C2F8004424E7BDB9B0F8FE
:103D4C0050200C7802EBC402023200EB42023E2BF4
:103D5C0028D9C3F34F1413F01F0F01D1013CA4B2A7
:103D6C006FEAC4646FEA5444A4B2C2F800444A78BF
:103D7C0082BBB0F850200C7802EBC402063200EB88
:103D8C0042023E2B1AD9C3F34F1413F01F0F01D16B
:103D9C00013CA4B26FEAC4646FEA5444A4B2C2F802
:103DAC000044F0E6C3F34F0413F0010F01D00134CB
:103DBC00A4B2A402A4B2C2F80044D8E7C3F34F04DF
:103DCC0013F0010F01D00134A4B2A402A4B2C2F8C2
:103DDC000044D8E6012A7FF4D6AEB0F850200C7817
:103DEC0002EBC402023200EB4202C2F80034CAE613
:103DFC0001335B1000EB420202F5806204E01068B4
:103E0C0021F8020B013B0432002BF8D17047D0F89B
:103E1C0018321BB10020C3F81402704702207047FF
:103E2C0010B5D0F81842D0F81C325BB194F80002EF
:103E3C00FF2807D09B6894F8012221469847FF235E
:103E4C0084F80032002010BD4323038000487047E3
:103E5C00400000204323038000487047840000206A
:103E6C004323038000487047D40000200A230380BA
:103E7C0000487047C800002038B50446D0F81852E6
:103E8C0001F048F9C5F80C02D4F818324BB1D4F84B
:103E9C001C32DB6805F50371D5F804029847002045
:103EAC0038BD0220FCE7000070B505460C46D0F882
:103EBC0018620B7813F0600225D0202A07D1CA882B
:103ECC003AB9D0F81C329B680022487898470020F9
:103EDC0070BD13F0800F0BD0D0F81C329B683146AC
:103EEC0060789847E2883146284600F059FCEEE7A6
:103EFC004B7886F80032CB8886F80132CA88314676
:103F0C0000F063FCE3E74B780A2BE0D10122024975
:103F1C0000F046FCDBE700BFFC01002010B50446B6
:103F2C00812101F0B4F80121204601F0B0F8822182
:103F3C00204601F0ACF8D4F8183253B1D4F81C3246
:103F4C005B689847D4F8180201F0EEF80023C4F827
:103F5C001832002010BD38B50446037C73BB4FF4F7
:103F6C0000730222812101F087F84FF400730222C2
:103F7C000121204601F080F80823032282212046EB
:103F8C0001F07AF84FF4077001F0CAF80546C4F84E
:103F9C00180248B3D4F81C321B6898470023C5F8A4
:103FAC001432C5F81832237CA3B14023D5F804226F
:103FBC000121204601F0A6F8002038BD4023022242
:103FCC00812101F059F8402302220121204601F001
:103FDC0053F8D1E74FF40073D5F8042201212046A1
:103FEC0001F090F80020E8E70120E6E719B1C0F8ED
:103FFC001C120020704702207047D0F81832C3F80A
:10400C000812C3F8102200207047D0F81832C3F8F9
:10401C00041200207047D0F818229AB108B5037C1E
:10402C003BB14023D2F80422012101F06BF80020AF
:10403C0008BD4FF40073D2F80422012101F062F89C
:10404C000020F5E70220704798B108B50346D0F878
:10405C00140210B10020C3F8140209B1C3F81012F5
:10406C001846012380F8FC31027000F0BBFF0020E1
:10407C0008BD0220704719B1C0F814120020704717
:10408C000220704708B500F0EFFF002008BD08B50E
:10409C00D0F8143233B11B68984708B9002008BD1A
:1040AC000220FCE70220FAE708B5D0F814325B686E
:1040BC009847002008BD38B5044600F5027528461F
:1040CC0000F00CF90123C4F8F431B4F80E32C4F842
:1040DC00F83194F8081201F01F03012B0ED03BB1FC
:1040EC00022B10D001F08001204600F0D8FF03E035
:1040FC002946204600F06BFA002038BD29462046A0
:10410C0000F089FAF8E72946204600F0A0FAF3E718
:10411C0010B5044621BB1346D0F8F421032A01D074
:10412C00002010BDD0F80C11D0F8102191420CD801
:10413C00D0F814321B6923B190F8FC21032A00D16A
:10414C009847204600F058FBEAE7891AC0F80C1192
:10415C008A4228BF0A4692B2194600F045FBDFE7B7
:10416C000A46D0F814329B69002BD9D090F8FC1178
:10417C000329D5D111469847D2E710B5044600293A
:10418C0046D11346D0F8F421022A05D094F8003217
:10419C00012B39D0002010BDC169026A914219D897
:1041AC008169B1FBF2F302FB13132BB98A4203D8DA
:1041BC00D0F8F83199421AD3D4F81432DB682BB109
:1041CC0094F8FC21032A01D120469847204600F0A0
:1041DC001EFBDBE78A1AC26192B2194600F0EDFAB7
:1041EC0000231A461946204600F08CFFCEE7002229
:1041FC00114600F0E2FA0021C4F8F8110B460A4609
:10420C00204600F07FFFC1E7002384F80032C1E7AD
:10421C000A46D0F814325B69002BBBD090F8FC1125
:10422C000329B7D111469847B4E738B50446402363
:10423C000022114600F020FF4025C4F810512B46F7
:10424C0000228021204600F017FF2562012384F80C
:10425C00FC31D4F818322BB1D4F814325B682179C4
:10426C0020469847002038BD01740020704790F814
:10427C00FC3180F8FD31042380F8FC3100207047BC
:10428C0090F8FD3180F8FC310020704708B590F8AB
:10429C00FC31032B01D0002008BDD0F81432DB69AF
:1042AC00002BF8D09847F6E7002302E00133DBB28D
:1042BC0001300278002AF9D1184670474B88012B3F
:1042CC000BD110B50446C0F80432D0F814329B68F8
:1042DC009847204600F090FA10BD70470B78037099
:1042EC004B7843708B78CA7803EB022343800B79AD
:1042FC004A7903EB022383808B79CA7903EB02237F
:10430C00C380704710B50446802100F0C8FE002120
:10431C00204600F0C4FE10BD30B583B004460D46F7
:10432C004A88130A013B062B00F28180DFE803F078
:10433C000413277F7F637000D0F810321B680DF1D7
:10434C000601007C9847BDF8062012B1EB88002BC3
:10435C0071D103B030BD037C43B9D0F814329B6AE1
:10436C000DF10600984702234370ECE7D0F81432A5
:10437C00DB6A0DF10600984702234370E3E7D2B2E3
:10438C00052A34D8DFE802F0030B131B232BD0F8DB
:10439C0010325B680DF10601007C9847D3E7D0F82A
:1043AC0010329B680DF10601007C9847CBE7D0F8E2
:1043BC001032DB680DF10601007C9847C3E7D0F89A
:1043CC0010321B690DF10601007C9847BBE7D0F851
:1043DC0010325B690DF10601007C9847B3E7D0F809
:1043EC0010329B690DF10601007C9847ABE729461A
:1043FC00FFF788FFADE7037C33B9D0F814325B6B61
:10440C000DF1060098479EE72946FFF77BFFA0E7D2
:10441C00037C43B9D0F814321B6B0DF1060098479E
:10442C00072343708FE72946FFF76CFF91E7294676
:10443C00FFF768FF8DE79A4228BF1A46ADF80620B1
:10444C000146204600F0ACF983E738B504468B886A
:10445C00E3B9CB88D3B98D7805F07F0590F8FC31A2
:10446C00032B0CD080F8FE51294600F03BFE204671
:10447C0000F0C2F935B1022384F8FC3109E0FFF7F2
:10448C0041FF06E0012384F8FC3102E02046FFF7EF
:10449C0039FF38BD38B504460D468978254B19705F
:1044AC00012909D890F8FC31022B09D0032B1CD020
:1044BC002946FFF727FF02E02946FFF723FF38BD07
:1044CC0081B14160032380F8FC31FFF7E0FD022845
:1044DC0003D0204600F090F9F1E729462046FFF77B
:1044EC0011FFECE700F088F9E9E789B143689942DC
:1044FC001DD0D9B2FFF7D8FD0E4B1978616020465C
:10450C00FFF7C5FD02280DD0204600F075F9D6E75F
:10451C00022380F8FC314160FFF7C6FD204600F015
:10452C006BF9CCE729462046FFF7ECFEC7E700F015
:10453C0063F9C4E7FD01002008B5CB88012B08D135
:10454C0090F8FC31022B07D0032B0DD0FFF7DAFECD
:10455C0001E0FFF7D7FE08BD0146002341F8083FF4
:10456C00012200F01DF9F6E70122011D00F018F9F7
:10457C00F1E708B590F8FC31023B012B0CD8012374
:10458C00C360D0F804320BB10323C360022200F1E4
:10459C000C0100F005F908BDFFF7B4FEFBE710B500
:1045AC00044690F8FC31023B012B0DD84B88012BB3
:1045BC0009D10023C0F80432D0F814329B68984714
:1045CC00204600F019F910BDFFF79CFEFBE708B57B
:1045DC004B78092B1CD8DFE803F012181B151B09AC
:1045EC00051B0F0CFFF798FE002008BDFFF72DFFF1
:1045FC00FAE7FFF74FFFF7E7FFF79EFFF4E7FFF748
:10460C00B8FFF1E7FFF75AFEEEE7FFF7C8FFEBE75D
:10461C00FFF778FEE8E738B504460D4690F8FC3114
:10462C00032B11D10B79012B0BD8D0F814329B68CA
:10463C009847EB880BB1002038BD204600F0DCF821
:10464C00F9E7FFF75FFEF6E7FFF75CFEF3E738B537
:10465C0005460C468A880B7803F06003202B05D1A5
:10466C00D0F814329B689847002038BDD1B26378DB
:10467C00012B25D0002B47D0032BF5D190F8FC3122
:10468C00022B05D0032B0AD02146FFF73BFEEBE7AC
:10469C000029E9D08029E7D000F001FDE4E7638828
:1046AC0023B919B1802901D000F0F9FCD5F81432E6
:1046BC009B68214628469847284600F09DF8D3E78A
:1046CC0090F8FC31022B05D0032B0AD02146FFF7C2
:1046DC0019FEC9E70029C7D08029C5D000F0DFFC3E
:1046EC00C2E76388002BBFD111F07F0F03D128469E
:1046FC0000F082F8B8E700F0DAFCD5F814329B68C9
:10470C00214628469847F2E790F8FC31022B05D059
:10471C00032B09D02146FFF7F5FDA5E711F07F0F1C
:10472C00A2D000F0BCFC9FE712F0800F11D101F079
:10473C007F04103400EB04140434284600F0BFFC52
:10474C0070B10123236002222146284600F028F88C
:10475C008AE701F07F04013400EB04140434ECE725
:10476C0000232360EFE7D0B170B50D461646044622
:10477C00FFF79AFD0130400080B23080287003238F
:10478C006B70022307E001345A1CD2B2E954023395
:10479C00DBB20021A95421780029F4D170BD7047F7
:1047AC0010B513460222C0F8F4218361C3610A4696
:1047BC00002100F09FFC002010BD08B513460A46EE
:1047CC00002100F097FC002008BD10B51346032211
:1047DC00C0F8F421C0F80831C0F80C310A460021A9
:1047EC0000F090FC002010BD08B513460A460021CD
:1047FC0000F088FC002008BD08B50423C0F8F43193
:10480C0000231A46194600F075FC002008BD08B5B7
:10481C000523C0F8F43100231A46194600F072FC47
:10482C00002008BD08B50548054B0360FBF742FDA9
:10483C0000B908BD00F0F0F9FBE700BF3004002020
:10484C00003002400268094B9A4200D0704782B097
:10485C00A3F500535A6942F040025A615B6903F0B8
:10486C0040030193019B02B0704700BF003002402F
:10487C0070B588B0002404940594069407942E4BCC
:10488C009A6942F010029A619A6902F01002009241
:10489C00009A9A6942F020029A619A6902F0200209
:1048AC000192019A9A6942F004029A619A6902F0A3
:1048BC0004020292029A9A6942F008029A619B6978
:1048CC0003F008030393039B1C4E22464FF4005144
:1048DC003046FBF735FE4FF4005304930123059348
:1048EC0006940223079304A93046FBF73FFD4FF4CF
:1048FC00404304930325059504A93046FBF736FD88
:10490C0048F2FF130493059504A90D48FBF72EFDFF
:10491C004FF63B73049305950A4D04A92846FBF703
:10492C0025FD042304930594069404A92846FBF75B
:10493C001DFD08B070BD00BF00100240001001400A
:10494C0000080140000C014008B50B480B4B0360FC
:10495C000B4B436000238360C3604FF480420261C1
:10496C0043618361C3610362FCF768F900B908BD58
:10497C0000F052F9FBE700BF38040020005400405F
:10498C00801A060010B586B000230293039304939B
:10499C0005930268194B9A4201D006B010BD184C11
:1049AC00A36943F00803A361A36903F00803009310
:1049BC00009BC0230293122303930323059302A9A4
:1049CC001048FBF7D3FCE36943F40013E361E3699C
:1049DC0003F400130193019B002211461F20FBF7E7
:1049EC0013FC1F20FBF744FC002211462020FBF790
:1049FC000BFC2020FBF73CFCCFE700BF0054004031
:104A0C0000100240000C014030B595B000240C940D
:104A1C000D940F941094059406940794089409949B
:104A2C00019402940394049401220A924FF480336B
:104A3C000B930E920225119512934FF4E0131393DE
:104A4C000AA8FDF7DBFD0F230593069507944FF499
:104A5C00806308930994294605A8FDF7F5FF1023F8
:104A6C000193049401A8FEF7E3F815B030BD0000E3
:104A7C0080B586B0FBF792FBFFF7C6FFFFF7F8FE99
:104A8C00FFF7D0FE00F0ECF9FFF75EFF00F092F9B3
:104A9C0000F038F9364C374D0FCD20606160A260C4
:104AAC00E36028682061AA88AB79A282A3752046AE
:104ABC00FBF746FB4FF4FA7382B221462E48FEF701
:104ACC007FFC06AF002307F8013D2C4D64260296AF
:104ADC0001240194009723466B22D0212846FCF731
:104AEC0061F9029601940DF11608CDF80080234669
:104AFC007522D0212846FCF713FA02960194CDF8C2
:104B0C00008023461A22D0212846FCF709FA0823F4
:104B1C008DF8173002960194009723461B22D02162
:104B2C002846FCF73FF902960194CDF80080234605
:104B3C001B22D0212846FCF7F3F918238DF81730E7
:104B4C0002960194009723461C22D0212846FCF79C
:104B5C0029F902960194CDF8008023461C22D0211D
:104B6C002846FCF7DDF90648FEF724F9FEE700BFFE
:104B7C009C040020945B0008D00600203804002020
:104B8C009006002000B583B002230193054B0093DF
:104B9C0001233B22D0210448FCF742FB03B05DF813
:104BAC0004FB00BF8C0400203804002010B5144B0B
:104BBC001A785B7803F0F003124C43EA0222124994
:104BCC00204600F0B7FB2046FBF7BAFA4FF4FA7315
:104BDC0082B221460D48FEF7F3FB0D4B1B78642B7C
:104BEC0004D00B4A13780133137010BD4FF40051ED
:104BFC000848FBF7ABFC064B00221A70F1E700BF2C
:104C0C008C0400209C0400208C5B0008D006002043
:104C1C00FE010020001001407047000082B00E4BD6
:104C2C009A6942F001029A619A6902F001020092BB
:104C3C00009ADA6942F08052DA61DB6903F0805342
:104C4C000193019B054A536823F0E06343F0007322
:104C5C00536002B0704700BF0010024000000140DA
:104C6C007047FEE7FEE7FEE7FEE7704770477047C8
:104C7C0008B5FBF7A5FA08BD08B50248FDF78BFB94
:104C8C0008BD00BF0411002008B50248FEF726F944
:104C9C0008BD00BF9006002008B50248FCF7DEFEF8
:104CAC0008BD00BF3804002008B50248FCF78AFF95
:104CBC0008BD00BF380400200F4B1A6842F00102F7
:104CCC001A6059680D4A0A405A601A6822F08472B8
:104CDC0022F480321A601A6822F480221A605A6810
:104CEC0022F4FE025A604FF41F029A60044B4FF0FC
:104CFC0000629A60704700BF001002400000FFF88D
:104D0C0000ED00E000B587B00023029303930493F9
:104D1C000593009301931548154A026040F25722FF
:104D2C0042608360C26003618361FEF7CFF9A0B972
:104D3C0006A94FF4805341F8103D0C48FEF746F895
:104D4C0070B9202300930023019369460748FEF7AE
:104D5C00D6F940B907B05DF804FBFFF75DFFE7E754
:104D6C00FFF75AFFEDE7FFF757FFF3E79006002038
:104D7C000004004002680E4B9A4200D0704700B508
:104D8C0083B003F50333DA6942F00202DA61DB69BE
:104D9C0003F002030193019B002211461D20FBF737
:104DAC0033FA1D20FBF764FA03B05DF804FB00BF77
:104DBC000004004008B50A480A4B03604FF4613305
:104DCC00436000238360C36003610C2242618361F2
:104DDC00C361FEF7C6FA00B908BDFFF71DFFFBE77C
:104DEC00D00600200038014010B586B00023029395
:104DFC000393049305930268174B9A4201D006B0B3
:104E0C0010BD03F558439A6942F480429A619A693D
:104E1C0002F480420092009A9A6942F004029A616C
:104E2C009B6903F004030193019B4FF400730293FD
:104E3C000223039303230593084C02A92046FBF796
:104E4C0095FA4FF48063029300230393049302A911
:104E5C002046FBF78BFAD2E70038014000080140EE
:104E6C0008B500220F491048FFF7EEF870B90F494A
:104E7C000D48FFF700F960B90D490B48FFF7B6F87C
:104E8C0050B90948FFF7FEF848B908BDFFF7C4FE52
:104E9C00EDE7FFF7C1FEEFE7FFF7BEFEF1E7FFF727
:104EAC00BBFEF2E72C0100201007002008000020B8
:104EBC001C010020002070470020704710B5054CE5
:104ECC0001462046FFF7A1F82046FFF7A4F8002082
:104EDC0010BD00BF1007002010B5064C002206497B
:104EEC002046FFF78AF805492046FFF78EF8002088
:104EFC0010BD00BF100700201C0D0020340900203D
:104F0C0018B1022803D002207047002070470120FE
:104F1C007047000002680E4B9A4200D0704700B5F3
:104F2C0083B003F5DA33DA6942F40002DA61DB6943
:104F3C0003F400030193019B002211461420FBF79C
:104F4C0063F91420FBF794F903B05DF804FB00BF80
:104F5C00005C004008B500F22C41D0F85C04FFF76F
:104F6C00AAF808BD08B500EB4113D3F83C22D0F8E1
:104F7C005C04FFF7CDF808BD08B500EB4113DA6B04
:104F8C00D0F85C04FFF7F9F808BD08B5D0F85C045C
:104F9C00FFF77CF908BD10B504468368022B01D0DD
:104FAC00FFF73AFE0121D4F85C04FFF75DF9D4F861
:104FBC005C04FFF73AF910BD10B50446D0F85C0458
:104FCC00FFF755F9A36923B1024A136943F00603AD
:104FDC00136110BD00ED00E008B5D0F85C04FFF7DC
:104FEC004FF908BD10B504461D48C0F85C44C4F820
:104FFC0020021C4B036008234360022383600023C0
:10500C008361C3610362FCF77AFE30BB1823002274
:10501C001146D4F82002FDF7C3FA58230022802150
:10502C00D4F82002FDF7BCFAC02300228121D4F869
:10503C002002FDF7B5FA4FF4887300220121D4F851
:10504C002002FDF7ADFA4FF4807300228221D4F8D0
:10505C002002FDF7A5FA002010BDFFF7DDFDD5E716
:10506C0004110020005C004008B5D0F82002FCF7C9
:10507C00B1FEFFF745FF08BD10B51C46134622468E
:10508C00D0F82002FCF7D1FEFFF73AFF10BD08B5AF
:10509C00D0F82002FCF7F2FEFFF732FF08BD08B58E
:1050AC00D0F82002FDF727FAFFF72AFF08BD08B554
:1050BC00D0F82002FDF74DFAFFF722FF08BDD0F81B
:1050CC00203211F0800F06D101F07F0103EB41116A
:1050DC0091F82A02704701F07F0103EB411191F81E
:1050EC002A00704708B5D0F82002FCF78AFEFFF7BB
:1050FC0007FF08BD08B5D0F82002FCF70CFFFFF73E
:10510C00FFFE08BD08B5D0F82002FCF7DEFEFFF765
:10511C00F7FE08BD08B5D0F82002FCF7F5FE08BD77
:10512C0000487047000200207047704712230B8024
:10513C00004870474801002004230B80004870474A
:10514C005C0100200023934216D230B40BE03734BC
:10515C0001F8134000015C00013400250D550133AA
:10516C00DBB2934206D2040F092CF0D8303401F88C
:10517C001340EFE730BC70477047000038B50A4B5E
:10518C00186804331C6804331B68C01800D138BD80
:10519C00064D0822A91CFFF7D5FF042205F11201C8
:1051AC002046FFF7CFFFF2E7E8F7FF1F6001002072
:1051BC0008B51A230B80FFF7E1FF014808BD00BFBB
:1051CC006001002008B50A4628B105490548FFF7DB
:1051DC00CAFA034808BD02490248FFF7C4FAF8E7C7
:1051EC0064150020F45B000810B5044C0A462146F7
:1051FC000348FFF7B8FA204610BD00BF6415002025
:10520C00E05B000808B50A4628B105490548FFF7D8
:10521C00AAFA034808BD02490248FFF7A4FAF8E7C6
:10522C0064150020C45B000808B50A4628B105497E
:10523C000548FFF798FA034808BD02490248FFF7F2
:10524C0092FAF8E764150020D05B000808B5034615
:10525C000D4A126862B10C4A10680C4A1268126846
:10526C00A2F5A0620344934206D8074A136008BD16
:10527C00054A07491160EEE700F032F80C23036091
:10528C004FF0FF30F3E700BF2004002008ED00E0F2
:10529C0068170020002103E00B4B5B58435004318E
:1052AC000A480B4B42189A42F6D30A4A02E00023F2
:1052BC0042F8043B084B9A42F9D3FFF7FDFC00F08F
:1052CC0015F8FFF7D5FB7047485C0008000000207C
:1052DC00E0010020E001002068170020FEE700003C
:1052EC00014B1868704700BF7C01002070B5002589
:1052FC000C4E0D4CA41BA410A54209D100F02AFCA5
:10530C0000250A4E0A4CA41BA410A54205D170BD61
:10531C0056F8253098470135EEE756F82530984772
:10532C000135F2E7405C0008405C0008405C000876
:10533C00445C00080EB46FF0004100B59CB01DAB8E
:10534C0002900690079104910848094953F8042BE0
:10535C000591006802A9019300F066F80022029BF7
:10536C001A701CB05DF804EB03B070477C01002090
:10537C000802FFFF2DE9F0478E6882469E420C46DC
:10538C009046994637D88A8912F4906F31D002230F
:10539C00256809696F1A656905EB450595FBF3F5F9
:1053AC0009F101033B449D4238BF1D46530530D5DE
:1053BC00294600F035FB064650B90C234FF0FF3060
:1053CC00CAF80030A38943F04003A381BDE8F087FD
:1053DC003A46216900F0B4FAA38923F4906343F0B0
:1053EC008003A38126613E4426604E466561ED1B19
:1053FC00A5604E4500D94E4632464146206800F025
:10540C00AAFAA36800209B1BA36023681E44266095
:10541C00DCE72A4600F05EFB06460028E2D1216953
:10542C00504600F0B1FAC8E72DE9F04F9DB0039358
:10543C008B8980461D060C4616460FD50B696BB939
:10544C00402100F0EDFA2060206128B90C23C8F847
:10545C0000304FF0FF30C7E0402363610023099315
:10546C0020238DF8293030234FF0010B8DF82A3092
:10547C0037463D4615F8013B0BB1252B3ED1B7EB1A
:10548C00060A0BD05346324621464046FFF772FFC0
:10549C00013000F0A480099B534409933B78002B06
:1054AC0000F09D8000234FF0FF32CDE905230493DB
:1054BC0007938DF853301A932F46052217F8011BCA
:1054CC004F4800F02FFA049BD0B9D90644BF2022D4
:1054DC008DF853201A0744BF2B228DF853202A78BD
:1054EC002A2A15D02F4600200A25079A394611F88A
:1054FC00013B303B092B4DD9B8B10FE02F46B8E733
:10550C003F4A3D46801A0BFA00F018430490D3E74B
:10551C00039A111D12680391002A01DB079204E023
:10552C00524243F00203079204933B782E2B0CD18A
:10553C007B782A2B33D1039B02371A1D1B680392ED
:10554C00002BB8BF4FF0FF3305932E4D0322397853
:10555C00284600F0E7F938B14023401B03FA00F06D
:10556C00049B0137034304933978062226487E1C9A
:10557C008DF8281000F0D6F9002838D0234B13BB37
:10558C00039B073323F0070308330393099B4B4416
:10559C0009936DE705FB023201200F46A6E70023B5
:1055AC000A25194601370593384610F8012B303A75
:1055BC00092A03D9002BC8D00591C6E705FB0121A8
:1055CC0001230746F0E703AB00932246104B04A9D6
:1055DC004046AFF30080B0F1FF3F8146D6D1A3899E
:1055EC005B063FF536AF09981DB0BDE8F08F03ABF5
:1055FC0000932246064B04A9404600F081F8EAE7E6
:10560C000C5C0008125C0008165C0008000000002E
:10561C00815300082DE9F04791461F468A680B69B3
:10562C0006469342B8BF1346C9F8003091F84320A0
:10563C000C46DDF8208012B10133C9F80030236824
:10564C00990642BFD9F800300233C9F800302568FA
:10565C0015F0060507D104F1190AE368D9F8002002
:10566C009B1AAB4229DC94F843302268003318BFF4
:10567C00012392062ED404F1430239463046C0472A
:10568C00013021D02368E56803F00603042B18BF12
:10569C000025D9F800204FF0000908BFAD1AA36807
:1056AC00226908BF25EAE5759342C4BF9B1AED1821
:1056BC001A344D451AD1002008E0012352463946D0
:1056CC003046C047013003D14FF0FF30BDE8F087C2
:1056DC000135C2E73020E11881F843005A1C94F8D8
:1056EC0045102244023382F84310C4E701232246BA
:1056FC0039463046C0470130E6D009F10109D8E7F8
:10570C002DE9F04301F1430C0C46097E85B06E295E
:10571C001746064698460C9A00F0B38022D86329A7
:10572C0036D00AD8002900F0B980582900F08380BF
:10573C0004F1420584F8421032E0642901D0692951
:10574C00F6D120681368050603F104012AD51B68FD
:10575C001160002B03DA2D225B4284F843206F4842
:10576C000A2239E0732900F09D8008D86F2920D0D7
:10577C007029DDD1236843F02003236003E07529F1
:10578C0017D07829D4D17823654884F8453055E072
:10579C00136804F14205191D1B68116084F842302E
:1057AC0001238CE01B6810F0400F116018BF1BB276
:1057BC00CFE713682568181D1060280601D51B68F3
:1057CC0002E06806FBD51B886F2914BF0A22082249
:1057DC005248002184F843106568002DA560C0F282
:1057EC009580216821F004012160002B3DD1002D12
:1057FC0040F08E806546082A0BD12368DB0708D55C
:10580C00236962689A42DEBF302305F8013C05F13A
:10581C00FF35ACEB05032361CDF800803B4603AAB2
:10582C0021463046FFF7F6FE01304DD14FF0FF30E8
:10583C0005B0BDE8F083394884F845101368216839
:10584C001D1D1B6815600A060BD5CA0744BF41F025
:10585C00200121601BB9226822F020022260102254
:10586C00B7E74D0648BF9BB2EFE76546B3FBF2F1D5
:10587C0002FB1133C35C05F8013D0B460029F5D141
:10588C00B9E713682568181D6169106028061B6844
:10589C0001D5196002E06A06FBD519800023654624
:1058AC002361B9E71368191D11601D686268002136
:1058BC00284600F037F808B1401B6060636823612C
:1058CC00002384F84330A7E723692A46394630463B
:1058DC00C0470130AAD023689B0713D4E068039B10
:1058EC009842B8BF1846A3E701234A4639463046CA
:1058FC00C04701309AD00135E368039A9B1AAB423A
:10590C00F2DCEBE7002504F11909F5E7002BACD12B
:10591C00037804F1420584F842306CE71D5C000802
:10592C002E5C000810B5C9B202449042034601D166
:10593C00002303E01C7801308C42F6D1184610BDD0
:10594C0010B5431E0A44914200D110BD11F8014B11
:10595C0003F8014FF7E7884210B501EB020307D8B3
:10596C00421E99420AD011F8014B02F8014FF8E798
:10597C008342F5D98118D21AD34200D110BD13F845
:10598C00014D01F8014DF7E738B50546002943D024
:10599C0051F8043C0C1F002BB8BFE41800F0D0F8F1
:1059AC001E4A1368104633B9636014602846BDE87C
:1059BC00384000F0C6B8A3420BD921686218934254
:1059CC0001BF1A685B685218226063600460EDE7DF
:1059DC0013465A680AB1A242FAD919685818A0425B
:1059EC000BD120680144581882421960DED110682E
:1059FC005268014419605A60D8E702D90C232B6015
:105A0C00D4E7206821188A4201BF1168526809182E
:105A1C00216062605C60C9E738BD00BF24040020CF
:105A2C0070B5CD1C25F0030508350C2D38BF0C25A1
:105A3C00002D064601DBA94203D90C23336000205C
:105A4C0070BD00F07DF8214A1468214691B9204CB4
:105A5C0023681BB9304600F063F8206029463046B5
:105A6C0000F05EF8431C24D10C233046336000F068
:105A7C0068F8E4E70B685B1B18D40B2B0FD90B6091
:105A8C00CC18CD50304600F05CF804F10B00231D0F
:105A9C0020F00700C31AD3D05A42E250D0E74B682B
:105AAC008C4216BF636013600C46EBE70C464968EA
:105ABC00CCE7C41C24F00304A04205D0211A3046C4
:105ACC0000F02EF80130CFD02560DBE72404002055
